:040000000EEF00F00F
:04000800E6EF07F028
:08001800ACEF06F04FEF08F019
:1008000000000001000200020002000300030004D7
:100810000005000600070008000A000B000D00108C
:1008200000130017001B00200026002D003600409A
:10083000004C005B006C0080009800B500D700FF02
:10084000003130330000E1EC08F0D28ED28C520E31
:10085000376E110E386E25EC09F08C0E376E0F0EC8
:10086000386E20EC09F0700E376E0A0E386E1BECF5
:1008700009F0820E376E0C0E386E16EC09F0000E81
:10088000476E000E486E4850020DF350010FD96EAE
:10089000DA6ADE6ADD6A482A0F0E486452EF04F015
:1008A00054EF04F043EF04F0000E266E000E256EA8
:1008B00025C027F026C028F0000E226E000E216E03
:1008C00021C023F022C024F0000E486EBB86BB84FA
:1008D000000E386E010E376EA2EC07F0BB96BB948B
:1008E000000E386E010E376EA2EC07F0482A040E97
:1008F00048647DEF04F07FEF04F066EF04F0410EF2
:100900003D6E0EEC07F0BB86D28ECBB88AEF04F0BA
:100910008EEF04F0436A432A8FEF04F0436ACBB8AA
:1009200094EF04F098EF04F0446A442A99EF04F03D
:10093000446ACBBA9EEF04F0A1EF04F0010EA2EFDF
:1009400004F0000E44244324466EBBEF04F03C0E3A
:1009500011EC09F0CEEF04F0500E11EC09F0CEEFDF
:1009600004F0280E11EC09F0CEEF04F0030E11ECA8
:1009700009F0CEEF04F04650000AD8B4B6EF04F008
:10098000010AD8B4B1EF04F0030AD8B4ACEF04F014
:10099000010AD8B4A7EF04F0CEEF04F0CBBED3EF3A
:1009A00004F0D5EF04F0D7EF04F0010E476E475086
:1009B000D8A4DDEF04F0DFEF04F0E1EF04F085EF01
:1009C00004F0390195912FEC09F0000E266E000E0F
:1009D000256E000E486E48C043F0010E446E000EB6
:1009E000456E432AF7EF04F0D89044364536432E3F
:1009F000F4EF04F04450251245502612000E386ED4
:100A0000020E376EA2EC07F0CBBC09EF05F00BEF3E
:100A100005F00FEF05F0000E476E27EF05F0000E12
:100A2000266E000E256ECBB418EF05F01AEF05F018
:100A30001DEF05F0BB841EEF05F0BB94482A0F0E96
:100A4000486425EF05F027EF05F0EBEF04F0475081
:100A5000D8A42DEF05F02FEF05F085EF04F0390154
:100A6000958131EC09F0BB9485EF04F00EEF00F0B6
:100A7000000E2E6E000E2F6E29502C6E2D6A015026
:100A80002C5C02502D58D8B048EF05F04AEF05F025
:100A90004BEF05F02E8029502C6E2D6A03502C5CF4
:100AA00004502D58D8B057EF05F059EF05F05AEF24
:100AB00005F02E8229502C6E2D6A05502C5C0650B4
:100AC0002D58D8B066EF05F068EF05F069EF05F036
:100AD0002E8429502C6E2D6A07502C5C08502D58FE
:100AE000D8B075EF05F077EF05F078EF05F02E86BA
:100AF00029502C6E2D6A09502C5C0A502D58D8B004
:100B000084EF05F086EF05F087EF05F02E88295079
:100B10002C6E2D6A0B502C5C0C502D58D8B093EFD6
:100B200005F095EF05F096EF05F02E8A29502C6E12
:100B30002D6A0D502C5C0E502D58D8B0A2EF05F048
:100B4000A4EF05F0A5EF05F02E8C29502C6E2D6A30
:100B50000F502C5C10502D58D8B0B1EF05F0B3EF0A
:100B600005F0B4EF05F02E8E29502C6E2D6A115031
:100B70002C5C12502D58D8B0C0EF05F0C2EF05F034
:100B8000C3EF05F02F8029502C6E2D6A13502C5C7A
:100B900014502D58D8B0CFEF05F0D1EF05F0D2EFBB
:100BA00005F02F8229502C6E2D6A15502C5C1650A2
:100BB0002D58D8B0DEEF05F0E0EF05F0E1EF05F0DD
:100BC0002F8429502C6E2D6A17502C5C18502D58EC
:100BD000D8B0EDEF05F0EFEF05F0F0EF05F02F8660
:100BE00029502C6E2D6A19502C5C1A502D58D8B0F3
:100BF000FCEF05F0FEEF05F0FFEF05F02F88295020
:100C00002C6E2D6A1B502C5C1C502D58D8B00BEF4D
:100C100006F00DEF06F00EEF06F02F8A29502C6E2D
:100C20002D6A1D502C5C1E502D58D8B01AEF06F0BE
:100C30001CEF06F01DEF06F02F8C29502C6E2D6A4C
:100C40001F502C5C20502D58D8B029EF06F02BEF08
:100C500006F02CEF06F02F8E6000BBF0BAFF6000AC
:100C6000BFF0BCFFFE0E2918D8A439EF06F03BEF09
:100C700006F03FEF06F0000E296E40EF06F0292A3D
:100C80001200000E2F6E2FC02CF0010E2D6E000EE4
:100C90002E6E2C2A4FEF06F0D8902D362E362C2EA5
:100CA0004CEF06F025502D1626502E162D502E10E6
:100CB000D8A45DEF06F05FEF06F08EEF06F02F5040
:100CC000600FD96EDA6ADF50D8B469EF06F06BEFC7
:100CD00006F0A2EF06F02F50600FD96EDA6ADF0639
:100CE0002F50600FD96EDA6ADF50020DF350010FFA
:100CF0002C6E6000B3F0F6FF080EF76E2F50020D59
:100D0000F350010FD96EDA6A09006F00D7FFDEFFDA
:100D100008006F00D7FFDDFFA2EF06F02F50600F35
:100D2000D96EDA6A1F0EDE18D8B499EF06F09BEF81
:100D300006F0A2EF06F02F50600FD96EDA6ADF2AB4
:100D400070EF06F02F2A0F0E2F64A9EF06F0ABEF1D
:100D500006F043EF06F012006F0060FF30F06F0006
:100D6000E8FF31F06F00ECFF32F06F00D8FF33F096
:100D70006F00DCFF34F06F00E0FF35F06F00D4FF50
:100D800036F0390193AFC7EF06F0C9EF06F0D4EFA4
:100D900006F0A3AFCEEF06F0D0EF06F0D4EF06F0EA
:100DA00036EC08F0F8EF06F094A5D9EF06F0DBEF8B
:100DB00006F0E6EF06F0A4A5E0EF06F0E2EF06F09D
:100DC000E6EF06F01DEC08F0F8EF06F097A1EBEF68
:100DD00006F0EDEF06F0F8EF06F0A7A1F2EF06F04F
:100DE000F4EF06F0F8EF06F004EC08F0F8EF06F088
:100DF0006000DBF0F5FF6000D7F0F8FF6000D3F093
:100E0000F7FF6000CFF0F6FF6000CBF0FBFF600063
:100E1000C7F0FAFF6000C3F0D8FF1100000E386E73
:100E2000070E376EA2EC07F0000E426E3D504224D2
:100E30003E6E6000FBF0F6FF080EF76E0800F550FE
:100E4000D00F416E4150D8B428EF07F02AEF07F0D9
:100E500050EF07F0000E406E3DEF07F0BB86000E2E
:100E6000386E010E376EA2EC07F0BB96000E386E9E
:100E7000010E376EA2EC07F0402A4150405CD8A02A
:100E800044EF07F046EF07F02EEF07F041500A0855
:100E90003F6E3FC037F0386AA2EC07F05EEF07F014
:100EA000BB84000E386E010E376EA2EC07F0BB94C7
:100EB000000E386E090E376EA2EC07F0422A020EC1
:100EC000426465EF07F067EF07F016EF07F0000EDA
:100ED000386E090E376EA2EC07F01200000EBA6EE3
:100EE000000EBB6E000EBC6E000EC26EF30EC36E23
:100EF000000EC46E000E3A01606F000E506F000EBF
:100F0000406F000E816FF00E516F000E416F000EAA
:100F1000616F000E5A6F000E5B6F000E6A6F000E5D
:100F20006B6F000E426F000E526F000E626F4369CE
:100F300053696369446954696469080E846F090ED2
:100F4000C16F1200000E3C6E000E3B6EB6EF07F054
:100F5000090E3A6E1E0E396EE40EE82EFED7392EBB
:100F6000FCD73A2EFAD700D03B4A3C2A3B50375C9C
:100F70003850800A396E3C50800A3958D8B0C3EFD7
:100F800007F0C5EF07F0A8EF07F012002150231873
:100F900007E122502418D8A4D0EF07F0D2EF07F0D1
:100FA000E1EF07F027C025F028C026F0000E226EE2
:100FB000000E216E21C023F022C024F0BB94E5EF87
:100FC00007F023C021F024C022F012006F00E8FFD8
:100FD0002AF06F00ECFF2BF0390195A1F2EF07F03A
:100FE000F4EF07F0FDEF07F0A5A1F9EF07F0FBEF35
:100FF00007F0FDEF07F02AEC09F06000AFF0FBFF0F
:101000006000ABF0FAFF11003901A79149504A1076
:10101000D8B40DEF08F00FEF08F01CEF08F002D87D
:101020001CEF08F00500FA6E4950FD6E4A50FE6E46
:10103000F850FF6EFA50120012003901A4954B507F
:101040004C10D8B426EF08F028EF08F035EF08F080
:1010500002D835EF08F00500FA6E4B50FD6E4C508B
:10106000FE6EF850FF6EFA50120012003901A39F75
:101070004F505010D8B43FEF08F041EF08F04EEF5A
:1010800008F002D84EEF08F00500FA6E4F50FD6EE2
:101090005050FE6EF850FF6EFA501200120000EE33
:1010A00060F0100EEE6AE806FDE100EE01F0290E98
:1010B000EE6AE806FDE1080ED56E000ED66E000E53
:1010C000D76E000EF86E000123EF04F04D504E1065
:1010D000D8B46DEF08F06FEF08F07CEF08F002D89D
:1010E0007CEF08F00500FA6E4D50FD6E4E50FE6E1E
:1010F000F850FF6EFA5012001200060EA26E000E9B
:10110000A16E000EA36E630E9F6E000E9E6E3901DF
:10111000A7919781660E376E120E386E16EC09F0A5
:10112000A00EA06E1200010EAE6E000EAD6E000E8F
:10113000AF6E9F0EAB6E000EAA6E3901A49594851A
:10114000680E376E120E386E1BEC09F0A00EAC6EF6
:101150001200D8902734276E2834286ECBB0B3EF16
:1011600008F0B5EF08F0B8EF08F02790B9EF08F0F5
:101170002780234A242ABB8412004B0EB96E9B0E93
:10118000B76E000EB66E3901A39F938F6A0E376E4D
:10119000120E386E20EC09F0800EB86E1200000EB0
:1011A0003901C06F000EC16F000EC26F000EC36F19
:1011B000000EC46F000EC56F000EC66F000EC76F25
:1011C00012000AEC09F0CFEC08F06EEC07F0F2EC3C
:1011D00008F07DEC08F093EC08F0FEEC08F0BDECB4
:1011E00008F01200600E3901D96F000EDB6F000E9F
:1011F000DD6F080EDF6F000EDE6F12003901A59162
:10120000D2826C0E376E120E386E25EC09F0390161
:1012100095811200D28A39018581839F84958791B7
:101220001200376E6000DFF09FFF120037C049F0F8
:1012300038C04AF0120037C04BF038C04CF01200F2
:1012400037C04FF038C050F0120037C04DF038C0F2
:101250004EF012003901A59166EC08F01200B89E1C
:0E1260001200B88E12001200120012001200CE
:020000040020DA
:10000000FF0FFF0FFF0FFF0FFF0FFF0FFF0FFF0F80
:020000040030CA
:0A0000008CFFF7FF9FFFFFFFFFFFDB
:00000001FF
