:040000000EEF00F00F
:04000800D7EF06F038
:080018001FEF07F09CEF08F058
:1008000000000001000200020002000300030004D7
:100810000005000600070008000A000B000D00108C
:1008200000130017001B00200026002D003600409A
:10083000004C005B006C0080009800B500D700FF02
:100840000000ADEC08F0D28ED28C340E0001606F47
:10085000100E616FF3EC08F0600E0001606F0F0E78
:10086000616FEEEC08F0C60E0001606F0A0E616F5A
:10087000E9EC08F0D80E0001606F0C0E616FE4EC3B
:1008800008F0000E00016A6F000E6B6F6B51020DD5
:10089000F350010FD96EDA6ADE6ADD6A6B2B0F0E38
:1008A0006B6555EF04F057EF04F046EF04F0000ECF
:1008B000366E000E356E35C037F036C038F0000E9B
:1008C000326E000E316E31C033F032C034F0000EA3
:1008D0006B6FBB84BB86000E616F010E606F89EC8D
:1008E00007F0BB94BB96000E0001616F010E606FB4
:1008F00089EC07F000016B2B040E6B6582EF04F0AE
:1009000084EF04F069EF04F0000E6B6FBB84000EFF
:10091000616F030E606F89EC07F0BB94000E00015D
:10092000616F030E606F89EC07F000016B2B6B5158
:10093000D8B49DEF04F09FEF04F086EF04F0000EB2
:10094000616F050E606F89EC07F0BB84D28ECBB867
:10095000ACEF04F0B1EF04F00001666B662BB3EF6F
:1009600004F00001666BCBB8B8EF04F0BCEF04F004
:10097000676B672BBEEF04F00001676BCBBAC3EF68
:1009800004F0C6EF04F0010EC7EF04F0000E672577
:100990006625696FE0EF04F03C0EDEEC08F0F3EF43
:1009A00004F0500EDEEC08F0F3EF04F0280EDEEC5D
:1009B00008F0F3EF04F0030EDEEC08F0F3EF04F0C0
:1009C0006951000AD8B4DBEF04F0010AD8B4D6EFBD
:1009D00004F0030AD8B4D1EF04F0010AD8B4CCEF84
:1009E00004F0F3EF04F0CBBEF8EF04F0FAEF04F0FC
:1009F000FDEF04F0010E00016A6F00016A51D8A4F6
:100A000004EF05F006EF05F008EF05F0A7EF04F09E
:100A100039019591FDEC08F0000E366E000E356E32
:100A2000000E00016B6F6BC066F0010E676F000E69
:100A3000686F662B1FEF05F0D89067376837662F11
:100A40001CEF05F000016751351268513612000E97
:100A5000616F020E606F89EC07F0CBBC32EF05F0DE
:100A600034EF05F039EF05F0000E00016A6F52EF28
:100A700005F0000E366E000E356ECBB642EF05F077
:100A800044EF05F047EF05F0BB8648EF05F0BB9655
:100A900000016B2B0F0E6B6550EF05F052EF05F068
:100AA00013EF05F06A51D8A458EF05F05AEF05F09E
:100AB000A7EF04F039019581FFEC08F0BB96A7EF92
:100AC00004F00EEF00F0000E466E000E476E395037
:100AD000446E456A0150445C02504558D8B073EFEB
:100AE00005F075EF05F076EF05F046803950446E5D
:100AF000456A0350445C04504558D8B082EF05F075
:100B000084EF05F085EF05F046823950446E456A62
:100B10000550445C06504558D8B091EF05F093EF6E
:100B200005F094EF05F046843950446E456A07504D
:100B3000445C08504558D8B0A0EF05F0A2EF05F08E
:100B4000A3EF05F046863950446E456A0950445C6F
:100B50000A504558D8B0AFEF05F0B1EF05F0B2EF4D
:100B600005F046883950446E456A0B50445C0C5081
:100B70004558D8B0BEEF05F0C0EF05F0C1EF05F065
:100B8000468A3950446E456A0D50445C0E504558B3
:100B9000D8B0CDEF05F0CFEF05F0D0EF05F0468CE3
:100BA0003950446E456A0F50445C10504558D8B0D7
:100BB000DCEF05F0DEEF05F0DFEF05F0468E395093
:100BC000446E456A1150445C12504558D8B0EBEF62
:100BD00005F0EDEF05F0EEEF05F047803950446E7B
:100BE000456A1350445C14504558D8B0FAEF05F0EC
:100BF000FCEF05F0FDEF05F047823950446E456A81
:100C00001550445C16504558D8B009EF06F00BEF6C
:100C100006F00CEF06F047843950446E456A1750D1
:100C2000445C18504558D8B018EF06F01AEF06F09B
:100C30001BEF06F047863950446E456A1950445CF4
:100C40001A504558D8B027EF06F029EF06F02AEFE2
:100C500006F047883950446E456A1B50445C1C506E
:100C60004558D8B036EF06F038EF06F039EF06F009
:100C7000478A3950446E456A1D50445C1E504558A1
:100C8000D8B045EF06F047EF06F048EF06F0478C86
:100C90003950446E456A1F50445C20504558D8B0C6
:100CA00054EF06F056EF06F057EF06F0478E60005F
:100CB0001BF1BAFF60001FF1BCFFFE0E3918D8A46B
:100CC00064EF06F066EF06F06AEF06F0000E396E8C
:100CD0006BEF06F0392A1200000E3D6E3DC03AF06F
:100CE000010E3B6E000E3C6E3A2A7AEF06F0D89069
:100CF0003B363C363A2E77EF06F035503B163650F1
:100D00003C163B503C10D8A488EF06F08AEF06F062
:100D1000B9EF06F03D50210FD96EDA6ADF50D8B432
:100D200094EF06F096EF06F0CDEF06F03D50210F60
:100D3000D96EDA6ADF063D50210FD96EDA6ADF50CC
:100D4000020DF350010F3A6E6000EBF0F6FF080E53
:100D5000F76E3D50020DF350010FD96EDA6A0900AB
:100D60006F00D7FFDEFF08006F00D7FFDDFFCDEF7C
:100D700006F03D50210FD96EDA6A1F0EDE18D8B486
:100D8000C4EF06F0C6EF06F0CDEF06F03D50210FA0
:100D9000D96EDA6ADF2A9BEF06F03D2A0F0E3D641A
:100DA000D4EF06F0D6EF06F06EEF06F012006F00FB
:100DB000E8FF3EF06F00ECFF3FF06F00D8FF40F01F
:100DC0006F00DCFF41F06F00E0FF42F06F00D4FFE6
:100DD00043F0390195A1EFEF06F0F1EF06F0FCEFDB
:100DE00006F0A5A1F6EF06F0F8EF06F0FCEF06F02E
:100DF000F8EC08F00CEF07F097A101EF07F003EF14
:100E000007F00CEF07F0A7A108EF07F00AEF07F0D3
:100E10000CEF07F001EC08F060000FF1F5FF600047
:100E20000BF1F8FF600007F1F7FF600003F1F6FF38
:100E30006000FFF0FBFF6000FBF0FAFF11006F00A5
:100E400060FF48F06F00E8FF49F06F00ECFF4AF0E8
:100E5000390193AF2EEF07F030EF07F03BEF07F0CB
:100E6000A3AF35EF07F037EF07F03BEF07F0E8EC03
:100E700007F04BEF07F094A540EF07F042EF07F0C3
:100E80004BEF07F0A4A547EF07F049EF07F04BEF52
:100E900007F0CFEC07F060002BF1FBFF600027F1BB
:100EA000FAFF600023F1D8FF1100000EBA6E000EA9
:100EB000BB6E000EBC6E000EC26EF30EC36E000E53
:100EC000C46E000E3A01606F000E506F000E406F4E
:100ED000000E816FF00E516F000E416F000E616FBA
:100EE000000E5A6F000E5B6F000E6A6F000E6B6F84
:100EF000000E426F000E526F000E626F436953691D
:100F00006369446954696469080E846F090EC16F8E
:100F10001200000E0001656F000E646FA0EF07F075
:100F2000090E0001636F1E0E626FE40EE82EFED7FD
:100F3000622FFCD7632FFAD700000001644B652BAA
:100F40006451605D6151800A626F6551800A625927
:100F5000D8B0ADEF07F0AFEF07F090EF07F0120059
:100F60003150331807E132503418D8A4BAEF07F0E3
:100F7000BCEF07F0CAEF07F037C035F038C036F0E5
:100F8000000E326E000E316E31C033F032C034F0DC
:100F9000CEEF07F033C031F034C032F01200390127
:100FA000A4954D504E10D8B4D8EF07F0DAEF07F003
:100FB000E7EF07F002D8E7EF07F00500FA6E4D50B3
:100FC000FD6E4E50FE6EF850FF6EFA501200120089
:100FD0003901A39F51505210D8B4F1EF07F0F3EF4D
:100FE00007F000EF08F002D800EF08F00500FA6EF5
:100FF0005150FD6E5250FE6EF850FF6EFA501200C6
:1010000012003901A7914B504C10D8B40AEF08F0E8
:101010000CEF08F019EF08F002D819EF08F00500FE
:10102000FA6E4B50FD6E4C50FE6EF850FF6EFA504B
:1010300012001200D8903734376E3834386ECBB087
:1010400024EF08F026EF08F029EF08F037902AEF98
:1010500008F03780334A342ACBA202D0BB8601D0B5
:10106000BB961200060EA26E000EA16E000EA36EBD
:10107000630E9F6E000E9E6E3901A7919781060E3A
:101080000001606F120E616FE4EC08F0A00EA06E1C
:101090001200010EAE6E000EAD6E000EAF6E9F0E12
:1010A000AB6E000EAA6E3901A4959485020E000164
:1010B000606F120E616FE9EC08F0A00EAC6E1200CA
:1010C0004F505010D8B467EF08F069EF08F076EF92
:1010D00008F002D876EF08F00500FA6E4F50FD6E6A
:1010E0005050FE6EF850FF6EFA50120012004B0E78
:1010F000B96E9B0EB76E000EB66E3901A39F938F2B
:10110000040E0001606F120E616FEEEC08F0800EAD
:10111000B86E1200000E3901C06F000EC16F000ED4
:10112000C26F000EC36F000EC46F000EC56F000EBD
:10113000C66F000EC76F120000EE01F0390EEE6AA6
:10114000E806FDE1080ED56E000ED66E000ED76ED5
:10115000000EF86E000121EF04F0D7EC08F08AECE5
:1011600008F055EC07F0CBEC08F032EC08F049EC55
:1011700008F0BEEC08F077EC08F012003901A591F8
:10118000D282080E0001606F120E616FF3EC08F05E
:10119000390195811200600E3901D96F000EDB6FA5
:1011A000000EDD6F080EDF6F000EDE6F1200D28AB8
:1011B000390185818781839F849512000001606FCA
:1011C000600083F19FFF120060C04BF061C04CF0E3
:1011D000120060C04DF061C04EF0120060C051F0CE
:1011E00061C052F0120060C04FF061C050F01200B8
:1011F0003901A59160EC08F01200B89E1200B88E7B
:0A120000120012001200120012008A
:020000040020DA
:10000000FF0FFF0FFF0FFF0FFF0FFF0FFF0FFF0F80
:020000040030CA
:0A0000008CFFF7FF9FFFFFFFFFFFDB
:00000001FF
