:040000000EEF00F00F
:04000800BCEF06F053
:0800180004EF07F07CEF08F093
:1008000000000001000200020002000300030004D7
:100810000005000600070008000A000B000D00108C
:1008200000130017001B00200026002D003600409A
:10083000004C005B006C0080009800B500D700FF02
:1008400000008DEC08F0D28ED28CAE0E0001606FED
:10085000100E616FD3EC08F02A0E0001606F0F0ECE
:10086000616FCEEC08F0900E0001606F0A0E616FB0
:10087000C9EC08F0A20E0001606F0C0E616FC4ECB1
:1008800008F0000E00016A6F000E6B6F6B51020DD5
:10089000F350010FD96EDA6ADE6ADD6A6B2B0F0E38
:1008A0006B6555EF04F057EF04F046EF04F0000ECF
:1008B000366E000E356E35C037F036C038F0000E9B
:1008C000326E000E316E31C033F032C034F0000EA3
:1008D0006B6FBB86BB84000E616F020E606F6EECA7
:1008E00007F0BB96BB94000E0001616F020E606FB3
:1008F0006EEC07F000016B2B040E6B6582EF04F0C9
:1009000084EF04F069EF04F0BB86BB94D28ECBB8C1
:100910008CEF04F091EF04F00001666B662B93EF0F
:1009200004F00001666BCBB898EF04F09CEF04F084
:10093000676B672B9EEF04F00001676BCBBAA3EFE8
:1009400004F0A6EF04F0010EA7EF04F0000E6725F7
:100950006625696FC0EF04F03C0EBEEC08F0D3EFE3
:1009600004F0500EBEEC08F0D3EF04F0280EBEECFD
:1009700008F0D3EF04F0030EBEEC08F0D3EF04F060
:100980006951000AD8B4BBEF04F0010AD8B4B6EF3D
:1009900004F0030AD8B4B1EF04F0010AD8B4ACEF04
:1009A00004F0D3EF04F0CBBED8EF04F0DAEF04F09C
:1009B000DDEF04F0010E00016A6F00016A51D8A456
:1009C000E4EF04F0E6EF04F0EDEF04F0CBA202D088
:1009D000BB8401D0BB9487EF04F039019591DDEC25
:1009E00008F0000E366E000E356E000E00016B6FC3
:1009F0006BC066F0010E676F000E686F662B04EF28
:100A000005F0D89067376837662F01EF05F00001D1
:100A10006751351268513612000E616F020E606F19
:100A20006EEC07F0CBBC17EF05F019EF05F01EEFE9
:100A300005F0000E00016A6F37EF05F0000E366E0C
:100A4000000E356ECBB427EF05F029EF05F02CEF43
:100A500005F0BB842DEF05F0BB9400016B2B0F0E4E
:100A60006B6535EF05F037EF05F0F8EF04F06A51EC
:100A7000D8A43DEF05F03FEF05F087EF04F0390112
:100A80009581DFEC08F0BB9487EF04F00EEF00F0E7
:100A9000000E466E000E476E3950446E456A015096
:100AA000445C02504558D8B058EF05F05AEF05F0B5
:100AB0005BEF05F046803950446E456A0350445C54
:100AC00004504558D8B067EF05F069EF05F06AEFBC
:100AD00005F046823950446E456A0550445C065024
:100AE0004558D8B076EF05F078EF05F079EF05F0CE
:100AF00046843950446E456A0750445C0850455856
:100B0000D8B085EF05F087EF05F088EF05F0468651
:100B10003950446E456A0950445C0A504558D8B073
:100B200094EF05F096EF05F097EF05F04688395001
:100B3000446E456A0B50445C0C504558D8B0A3EF46
:100B400005F0A5EF05F0A6EF05F0468A3950446E92
:100B5000456A0D50445C0E504558D8B0B2EF05F0D0
:100B6000B4EF05F0B5EF05F0468C3950446E456A98
:100B70000F50445C10504558D8B0C1EF05F0C3EF9A
:100B800005F0C4EF05F0468E3950446E456A1150A9
:100B9000445C12504558D8B0D0EF05F0D2EF05F0C4
:100BA000D3EF05F047803950446E456A1350445CDA
:100BB00014504558D8B0DFEF05F0E1EF05F0E2EF53
:100BC00005F047823950446E456A1550445C165012
:100BD0004558D8B0EEEF05F0F0EF05F0F1EF05F075
:100BE00047843950446E456A1750445C1850455844
:100BF000D8B0FDEF05F0FFEF05F000EF06F04786F7
:100C00003950446E456A1950445C1A504558D8B062
:100C10000CEF06F00EEF06F00FEF06F047883950A4
:100C2000446E456A1B50445C1C504558D8B01BEFBD
:100C300006F01DEF06F01EEF06F0478A3950446EAD
:100C4000456A1D50445C1E504558D8B02AEF06F046
:100C50002CEF06F02DEF06F0478C3950446E456AB4
:100C60001F50445C20504558D8B039EF06F03BEF98
:100C700006F03CEF06F0478E60001BF1BAFF600003
:100C80001FF1BCFFFE0E3918D8A449EF06F04BEF58
:100C900006F04FEF06F0000E396E50EF06F0392ADD
:100CA0001200000E3D6E3DC03AF0010E3B6E000E8C
:100CB0003C6E3A2A5FEF06F0D8903B363C363A2E2F
:100CC0005CEF06F035503B1636503C163B503C105E
:100CD000D8A46DEF06F06FEF06F09EEF06F03D50E2
:100CE000210FD96EDA6ADF50D8B479EF06F07BEFC6
:100CF00006F0B2EF06F03D50210FD96EDA6ADF063A
:100D00003D50210FD96EDA6ADF50020DF350010F0A
:100D10003A6E6000EBF0F6FF080EF76E3D50020DE4
:100D2000F350010FD96EDA6A09006F00D7FFDEFFBA
:100D300008006F00D7FFDDFFB2EF06F03D50210F36
:100D4000D96EDA6A1F0EDE18D8B4A9EF06F0ABEF41
:100D500006F0B2EF06F03D50210FD96EDA6ADF2AB5
:100D600080EF06F03D2A0F0E3D64B9EF06F0BBEFB1
:100D700006F053EF06F012006F00E8FF3EF06F0040
:100D8000ECFF3FF06F00D8FF40F06F00DCFF41F058
:100D90006F00E0FF42F06F00D4FF43F0390195A1EE
:100DA000D4EF06F0D6EF06F0E1EF06F0A5A1DBEFF9
:100DB00006F0DDEF06F0E1EF06F0D8EC08F0F1EF19
:100DC00006F097A1E6EF06F0E8EF06F0F1EF06F087
:100DD000A7A1EDEF06F0EFEF06F0F1EF06F0E6EC7D
:100DE00007F060000FF1F5FF60000BF1F8FF600005
:100DF00007F1F7FF600003F1F6FF6000FFF0FBFF73
:100E00006000FBF0FAFF11006F0060FF48F06F0018
:100E1000E8FF49F06F00ECFF4AF0390193AF13EFA0
:100E200007F015EF07F020EF07F0A3AF1AEF07F078
:100E30001CEF07F020EF07F0CDEC07F030EF07F0E4
:100E400094A525EF07F027EF07F030EF07F0A4A5F2
:100E50002CEF07F02EEF07F030EF07F0B4EC07F0BF
:100E600060002BF1FBFF600027F1FAFF600023F127
:100E7000D8FF1100000EBA6E000EBB6E000EBC6EE5
:100E8000000EC26EF30EC36E000EC46E000E3A0169
:100E9000606F000E506F000E406F000E816FF00EFD
:100EA000516F000E416F000E616F000E5A6F000E01
:100EB0005B6F000E6A6F000E6B6F000E426F000ECC
:100EC000526F000E626F43695369636944695469E4
:100ED0006469080E846F090EC16F1200000E0001D4
:100EE000656F000E646F85EF07F0090E0001636FF8
:100EF0001E0E626FE40EE82EFED7622FFCD7632F22
:100F0000FAD700000001644B652B6451605D6151AC
:100F1000800A626F6551800A6259D8B092EF07F07B
:100F200094EF07F075EF07F012003150331807E126
:100F300032503418D8A49FEF07F0A1EF07F0AFEFBD
:100F400007F037C035F038C036F0000E326E000EB4
:100F5000316E31C033F032C034F0B3EF07F033C03C
:100F600031F034C032F012003901A4954D504E10CA
:100F7000D8B4BDEF07F0BFEF07F0CCEF07F002D811
:100F8000CCEF07F00500FA6E4D50FD6E4E50FE6E30
:100F9000F850FF6EFA50120012003901A39F515011
:100FA0005210D8B4D6EF07F0D8EF07F0E5EF07F00E
:100FB00002D8E5EF07F00500FA6E5150FD6E525071
:100FC000FE6EF850FF6EFA50120012003901A79120
:100FD0004B504C10D8B4EFEF07F0F1EF07F0FEEFF5
:100FE00007F002D8FEEF07F00500FA6E4B50FD6ED9
:100FF0004C50FE6EF850FF6EFA5012001200060EB2
:10100000A26E000EA16E000EA36E630E9F6E000E08
:101010009E6E3901A7919781C60E0001606F110E77
:10102000616FC4EC08F0A00EA06E1200010EAE6E4F
:10103000000EAD6E000EAF6E9F0EAB6E000EAA6E70
:101040003901A4959485C20E0001606F110E616F85
:10105000C9EC08F0A00EAC6E12004F505010D8B47E
:1010600034EF08F036EF08F043EF08F002D843EF12
:1010700008F00500FA6E4F50FD6E5050FE6EF850AD
:10108000FF6EFA50120012004B0EB96E9B0EB76E37
:10109000000EB66E3901A39F938FC40E0001606FDE
:1010A000110E616FCEEC08F0800EB86E1200D89071
:1010B0003734376E3834386ECBB061EF08F063EFF9
:1010C00008F066EF08F0379067EF08F03780334A92
:1010D000342A1200000E3901C06F000EC16F000EDD
:1010E000C26F000EC36F000EC46F000EC56F000EFE
:1010F000C66F000EC76F120000EE01F0390EEE6AE7
:10110000E806FDE1080ED56E000ED66E000ED76E15
:10111000000EF86E000121EF04F0B7EC08F06AEC65
:1011200008F03AEC07F0ABEC08F0FFEC07F016EC37
:1011300008F09EEC08F044EC08F012003901A5918B
:10114000D282C80E0001606F110E616FD3EC08F0FF
:10115000390195811200600E3901D96F000EDB6FE5
:10116000000EDD6F080EDF6F000EDE6F1200D28AF8
:10117000390185818781839F849512000001606F0A
:10118000600083F19FFF120060C04BF061C04CF023
:10119000120060C04DF061C04EF0120060C051F00E
:1011A00061C052F0120060C04FF061C050F01200F8
:1011B0003901A5912DEC08F01200B89E1200B88EEE
:0A11C00012001200120012001200CB
:020000040020DA
:10000000FF0FFF0FFF0FFF0FFF0FFF0FFF0FFF0F80
:020000040030CA
:0A0000008CFFF7FF9FFFFFFFFFFFDB
:00000001FF
